:020000040800F2
:10000000C0130020E10100088D4A00084F380008A5
:1000100099420008411500081D5300080000000027
:10002000000000000000000000000000FD4E00087D
:100030004B18000800000000ED4C0008FF4E0008BF
:10004000FB010008FB010008FB010008FB010008A0
:10005000FB010008FB010008FB010008FB01000890
:10006000FB010008FB010008FB010008151800084F
:10007000FB010008FB010008FB010008FB01000870
:10008000FB010008FB010008FB010008FB01000860
:10009000FB010008FB010008FB010008FB01000850
:1000A000FB0100087D4F0008FB010008FB01000870
:1000B000FB010008894F0008954F0008FB0100086C
:1000C000FB010008FB010008FB010008FB01000820
:1000D000FB0100080553000811530008FB0100084C
:1000E000FB010008FB010008FB01000800F002F81A
:1000F00000F067F80AA090E8000C82448344AAF15B
:100100000107DA4501D100F05CF8AFF2090EBAE858
:100110000F0013F0010F18BFFB1A43F0010318473B
:1001200054830000748300000A444FF0000C10F860
:10013000013B13F0070408BF10F8014B1D1108BF65
:1001400010F8015B641E05D010F8016B641E01F805
:10015000016BF9D113F0080F1EBF10F8014BAD1C55
:100160000C1B09D16D1E58BF01F801CBFAD505E073
:1001700014F8016B01F8016B6D1EF9D59142D6D3CD
:10018000704700000023002400250026103A28BFF5
:1001900078C1FBD8520728BF30C148BF0B607047F9
:1001A000662907F03484002070471FB500F068FB13
:1001B00004000020002106F029FBE0601FBD10B5FF
:1001C00010BD00F061FC1146FFF7EFFF05F05EFD8A
:1001D00000F07FFC03B4FFF7F2FF03BC00F0C2FCA9
:1001E0000948804709480047FEE7FEE7FEE7FEE7CB
:1001F000FEE7FEE7FEE7FEE7FEE7FEE70448054907
:10020000054A064B704700007B4F0008ED000008D0
:10021000C00D0020C0130020C00F0020C00F002020
:100220000FB41CB5074B06AA7B446946009005989D
:1002300000F00DFB0020694600F01CFB1CBC5DF8C3
:1002400014FB0000490600002DE9F0474FF0000ABA
:1002500089460446C0F820A02046E1688847002867
:1002600076D0252806D0D4E901219047206A401C89
:100270002062F1E7E168204600258847C4F81CA009
:1002800006460027C4F818A02A2E09D0304605F0EB
:10029000E5FB38B304EB8708303EC8F8186019E076
:1002A00059F8041B204604EB87029161E1688847F6
:1002B000012F064618D1E069002820DA25F0200534
:1002C0001DE0D8F8180000EB800006EB4000303845
:1002D000C8F818002046E1688847064605F0BEFBCE
:1002E0000028EED1012F0AD02E2E08D12046E16839
:1002F00088477F1C0646022F45F02005C4DBA06915
:10030000002803DA404245F00105A061E80701D06A
:1003100025F01005B6B1A6F14100192802D8203603
:1003200045F400654A463146204625604D46FFF7B4
:1003300037FF58B1012806D0ED1D25F0070000F168
:10034000080989E704E005F1040985E730468AE7F2
:10035000206ABDE8F08710B5203AC0F00B80B1E804
:100360001850203AA0E81850B1E81850A0E81850EA
:10037000BFF4F5AF5FEA027C24BFB1E81850A0E8F3
:10038000185044BF18C918C0BDE810405FEA827C0D
:1003900024BF51F8043B40F8043B08BF7047D20724
:1003A00028BF31F8023B48BF11F8012B28BF20F8C5
:1003B000023B48BF00F8012B70474FF0000200B528
:1003C000134694469646203922BFA0E80C50A0E878
:1003D0000C50B1F12001BFF4F7AF090728BFA0E826
:1003E0000C5048BF0CC05DF804EB890028BF40F8F2
:1003F000042B08BF704748BF20F8022B11F0804F34
:1004000018BF00F8012B704770477047704710B550
:1004100000F03AFA006810BD10B5044600F034FA56
:10042000046010BD70472DE9FF4F0C461E464FF08B
:10043000FF378BB0D2E90001DDF860800A908A4670
:10044000C1F30A5505B93D46002108464FF00000AA
:10045000BAF1000F00F4400005DA00EB80004FF421
:10046000400101EA50004FEA9059B9F1010F00DD57
:10047000B9460A9850EA4A000ED044F61050A5F248
:10048000FF3545432F14B8F1000F1ED07542291EC9
:100490001EDDC9F100021CE0B8F1010F4FF00000B1
:1004A00001D0302103E0F24305E02154401CB0426A
:1004B000FBDB30460022002121540B99C1F8088053
:1004C000C1E900200FB0BDE8F08FBD1B6D1CDEE759
:1004D0004A4600DA694206A800F060FA06AB93E8E3
:1004E000070003AB83E8070050460A9900F041FB80
:1004F0008DE80700A0F500501F3800900398002DEC
:100500000ADD42F21F014A460844002303A9039072
:10051000684600F0AAFD09E0A0F500504A461F38E1
:10052000002303A90390684600F0B4FD8DE807009E
:100530000004000C03D04FF0FF30410800E01046EB
:10054000B8F1000F03D00022009215461EE0751E80
:1005500005D400F09DF9303262556D1EF9D5B346D1
:100560000122084302D000227F1C04E020783028BA
:1005700001D100227F1E002A099784D01DE0112D91
:1005800007DA00F085F9303262556D1C50EA01023D
:10059000F5D1084302D00098C8B10EE00021681ED2
:1005A00005E0235C625C63542254401E491C814276
:1005B000F7DBAB46A81B401E0990002004F80B0097
:1005C0000B98099AC0F80880C0E9002B7AE7112639
:1005D0004FF0000857E72DE9F04F88460446D21D3A
:1005E00022F0070191B0D1E90001CDE90A0104F040
:1005F00096FE02460B98C00F01D02D2007E0206820
:10060000810701D52B2002E0202101EAC000032A46
:10061000099001D0072A05DB03464146204600F039
:100620007DF90BE12078800601D5E06900E0062025
:10063000B8F1650F814606D0B8F1660F18D0B8F151
:10064000670F70D131E00020B9F1110F009001DB8C
:10065000112301E009F101030AAA01A90CA8FFF77F
:10066000E2FEDDE90C70002609F10105834647E052
:1006700001204B4600904FF000470AAA01A90CA8A0
:10068000FFF7D1FEDDE90DB00C995D46002610B9EB
:1006900009F101000D18B9EB050003D4C0F1FF36D4
:1006A00009F10105A5EB09002BE0B9F1010F01DA11
:1006B0004FF001090020B9F1110F0090484601DD0B
:1006C000112300E003460AAA01A90CA8FFF7ABFE1C
:1006D000DDE90C704D4600268346207800070AD4D9
:1006E000AB4500DA5D4601A8012D04DD411911F882
:1006F000011C302907D04F4502DA17F1040F04DA44
:10070000012082460FE06D1EEEE7002F02DCED1B9C
:100710003E4403E0781CA84200DD7D1CB81B00F1BC
:10072000010A4FF000472078000703D4AA4501DBF7
:100730004FF0FF3A0021B7F1004F0DF143088DF85B
:10074000431024D002202B23002F01DA7F422D23D7
:100750000A21021EA0F1010000DC5FB197FBF1FC51
:1007600097FBF1F201FB1C7C17460CF1300C08F8EA
:1007700001CDEEE7A8F1010003702188090501D53C
:10078000452100E06521A0F1010800F8011C09984D
:100790000FA9A1EB0807FF1D00B10120411901EBD2
:1007A000EA70A1693844081A401EA0612078C0068A
:1007B00002D42046AFF30080099828B1D4E9012182
:1007C0009047206A401C20622078C00622D520462F
:1007D000AFF300801EE0002E04DBB34502DD01A86C
:1007E000805D00E03020D4E901219047206A401C60
:1007F0002062761CAAF101005FEA000A0AD100F02B
:100800003FF8C0680168405CD4E901219047206A44
:10081000401C2062281EA5F10105DCDC07E0D4E9BC
:10082000012118F8010B9047206A401C2062381EF5
:10083000A7F10107F3DC2046AFF30080032011B0DD
:1008400041E6000001694A1C02610878704700B562
:100850008FB0CDE901310021059105497944CDE9F9
:10086000031011466846FFF7EFFC0FB000BD000013
:10087000E5FFFFFF0A6802F8010B0A6070470000FD
:10088000004870477C0D0020004870475C0D002038
:1008900030B5B0F10A024FEA900E71F100034EEA52
:1008A000817EB0EB0E0061EB91014FEA101E4EEA23
:1008B000017E10EB0E0041EB11114FEA102E4EEAB3
:1008C000016E10EB0E0041EB11214FEA104E4EEA83
:1008D000014E10EB0E0041EB1141401841F10001B7
:1008E0004FEAD00040EA41704FEAD10110EB800599
:1008F0004FEA810444EA907444EB01046D1944EB1F
:100900000404521BA3414FF0000348BF0A3200D534
:1009100030BD401C41F1000130BD00002DE9F04127
:100920001F46044603260168072A01F4006004DB21
:1009300008B116A505E016A503E008B115A500E06D
:1009400015A521F010002060A069C01EA0610FB1A4
:10095000401EA0612046AFF300804FB1D4E90121D1
:1009600038469047206A401C2062C01C206206E086
:10097000206AFAE7D4E9012115F8010B9047761EA9
:10098000F8D22046AFF30080BDE8F0814E414E0022
:100990006E616E00494E4600696E66002DE9F047B3
:1009A000814616468AB0354878440DC88DE80D005A
:1009B00032487844801C03AC0DC884E80D0041F631
:1009C0009B300844372190FBF1F290FBF1F5A5F143
:1009D000800501FB12041B3C02D56442012000E0AB
:1009E0000020DFF898A080460027FA44AAF1BE0A4A
:1009F0000EE0E0070AD03246684607EB47010123C4
:100A00000AEB810100F046FB8DE8070064107F1CB3
:100A1000002CEED1194F7F44AE3F19E0E80715D006
:100A200007EB04100DF1180A90E80E008AE80E009A
:100A3000C068F04201D1981908903246012306A9F6
:100A400003A800F027FB03AB83E807006D10641CCC
:100A5000002DE3D14FF0010332466946B8F1000F93
:100A600003A802D000F001FB01E000F013FBC9E98C
:100A70000001C9F808200AB0BDE8F087B07A00008C
:100A8000004870475C0D00207546FFF7F9FFAE4641
:100A900005006946534620F00700854618B020B58A
:100AA000FFF7ACFBBDE820404FF000064FF0000719
:100AB0004FF000084FF0000B21F00701AC46ACE806
:100AC000C009ACE8C009ACE8C009ACE8C0098D4673
:100AD000704710B50446AFF300802046BDE81040D3
:100AE000FFF778BB4FF0013C50F8042B51F8043B62
:100AF0009A4221D1A2EB0C03934313EACC1317D1F2
:100B000050F8042B51F8043B9A4215D1A2EB0C0388
:100B1000934313EACC130BD150F8042B51F8043B48
:100B20009A4209D1A2EB0C03934313EACC13DBD016
:100B30004FF00000704700BFD01A01BAB1FA81F13E
:100B400001F0180122FA01F0CB40C1F12001DBB223
:100B5000C0B2C01A2CFA01F3D11A914311EAC311A1
:100B6000E6D1704701491820ABBEFEE7260002001F
:100B700070475FEA400C08BF91F0000F4FEA8C23EA
:100B80004FEAC12243EA51514FEA1C5018BF00F509
:100B9000F0404FEA300018BF41F000415FEA6C5C62
:100BA00000F02980BCF1FF3F08BF40F08040704753
:100BB000130C06BF12044FF0100C4FF0000C130E74
:100BC00004BF12020CF1080C130F04BF12010CF148
:100BD000040C930F04BF92000CF1020CD30F04BF5E
:100BE00052000CF1010C11464FF00002A0F11F0061
:100BF000A0EB0C00704711F0004F08BF704731F0B8
:100C000000413FF4D5AF0B0C06BF09044FF0100CA8
:100C10004FF0000C0B0E04BF09020CF1080C0B0F77
:100C200004BF09010CF1040C8B0F04BF89000CF107
:100C3000020CCB0F04BF49000CF1010CCCF12003D6
:100C4000A0EB0C0022FA03F302FA0CF241EA0301D2
:100C500000F10100704720F07F4C80EA030023F090
:100C60007F47ACEB070303F57C5300F0004003F132
:100C7000FF032DE980494FEA154B09B44FEA1443AD
:100C800025EA0B4E24EA03480FF2042606EB13274D
:100C900049083E785FEA320203FB0667C7F50007A2
:100CA00007FB06F64FEA54374FEAD64606F102062E
:100CB00007FB066CCCF1005C4FEA1C472CEA074CA2
:100CC00007FB06F40CFB06F504EB15464FEA9616F7
:100CD00034BF00204FF000404FEAD13706FB07FC3D
:100CE0004FEA1C4C0CFB0BF7D21B03FB0CF761EB20
:100CF00007010CFB0EF7B0EB074072EB17420CFB41
:100D000008F734BFA2EB0742B2EB074261EB174191
:100D10004FEA0C444FEA910706FB07FC4FEA1C4CD4
:100D20000CFB0BF7B0EBC74072EB573203FB0CF731
:100D300034BFA2EBC742B2EBC74261EB57310CFBA9
:100D40000EF7B0EBC70072EB57720CFB08F734BF1D
:100D5000A2EBC702B2EBC70261EB5771039F4FEAE8
:100D6000816141EA921104EBCC044FEAD1374FEA9A
:100D7000826206FB07FC42EA90124FEA80604FEA6B
:100D80001C4C0CFB0BF7D21B03FB0CF761EB0701B0
:100D90000CFB0EF7B0EB074072EB17420CFB08F7A9
:100DA00034BFA2EB0742B2EB074261EB17414FEAB7
:100DB0008C554FEA910704EB9C2406FB07FC4FEA95
:100DC0001C4C0CFB0BF7B0EBC74072EB573203FB2C
:100DD0000CF734BFA2EBC742B2EBC74261EB57310D
:100DE0000CFB0EF7B0EBC70072EB57720CFB08F769
:100DF00034BFA2EBC702B2EBC70261EB577115EB30
:100E00004C254FEA816141EA92114FEA82624FEA32
:100E1000D13742EA901206FB07FC44F100044FEA86
:100E200080604FEA1C4C0CFB0BF7D21B03FB0CF74A
:100E300061EB07010CFB0EF7B0EB074072EB1742BA
:100E40000CFB08F734BFA2EB0742B2EB074261EBA1
:100E5000174115EB1C154FEA813141EA92414FEAE7
:100E6000823242EA90424FEA80304FEA0C7644F1F7
:100E7000000448EA03434EEA0B484FF0000EB2EB81
:100E8000080C71EB030724BF624639464EEB0E0E89
:100E90004FF0000B0018524149414BEB0B0BB2EBEA
:100EA000080C71EB03077BF1000B24BF6246394647
:100EB0004EEB0E0E4FF0000B0018524149414BEB28
:100EC0000B0BB2EB080C71EB03077BF1000B24BF9B
:100ED000624639464EEB0E0E51EA020718BF46F045
:100EE000010616EB0E7655F1000254F1000103D510
:100EF000BDE88901BDE80088BDE88901BDE800487A
:100F0000B619524141EB0101A3F101037047808002
:100F10007F7E7D7C7B7A7978777676757473727153
:100F200071706F6E6E6D6C6C6B6A6A69686867660B
:100F300066656464636362616160605F5F5E5E5D9D
:100F40005D5C5C5B5B5A5A59595858575756565511
:100F500055555454535352525251515050504F4F73
:100F60004F4E4E4D4D4D4C4C4C4B4B4B4A4A4A49C3
:100F70004949484848474747474646464545454406
:100F80004444444343434342424242414141002B93
:100F90009C4630D477002BD01CB54FEA370703B4FA
:100FA0004FF010004FF01001BAF1000F06D0BCF165
:100FB000000FDCBF40F0080040F008014FF00000D7
:100FC0000FBCBDE810400BF1010BBBF1010F08BFD6
:100FD0005FEA170722BF12F1010211F101014FF080
:100FE000004143F1000300F0004043EA0000704775
:100FF000F9D35708D0E746EA064613F1400F4FEA07
:1010000016461FDD13F1200FDFBF16430A460021ED
:1010100020335B42BED0C3F1200746EA064602FAFF
:1010200007F74FEA164646EA0706C3F1200722FAF9
:1010300003F201FA07F721FA03F14FF0000342EA45
:101040000702A7E746EA020646EA06464FEA1646C0
:1010500046EA0106BCBF46EA0646360C4FF00003DE
:101060004FF000024FF0000194E72DE9804C9A46C2
:10107000934670B491E8380007C831EA400C48BF85
:1010800034EA430C03D5FFF7E6FDFFF780FFF0BC21
:10109000BDE8008C2DE9804C9A46934670B491E8E7
:1010A000380007C810F0804F08BF13F0804F03D1FD
:1010B00000F005F8FFF76BFFF0BCBDE8008C20F0F6
:1010C0007F4780EA030023F07F4C07EB0C03A3F576
:1010D0007C5300F00040A3F1FE0392F0000F00F0FB
:1010E000B38095F0000F00F077802DE901494FEAB9
:1010F00011404FEA144621EA004800FB06FC24EAAE
:10110000064708FB06F607FB08F800FB07F718EB95
:1011100006484CEB164C4FEA124B18EB07484FEAC7
:1011200015464CEB174022EA0B4E0BFB06FC25EA5A
:1011300006470EFB06F607FB0EFE0BFB07F71EEB42
:10114000064E4CEB164C4FF000061EEB074E4CEBD8
:10115000174B18EB0B0840F1000018EB0E0B58EB87
:10116000000840F100008F1A4FF000013CBFC94356
:10117000661B14BFB5EB040C00213CBFC943F61B32
:101180004FEA17444EEA8E0E27EA04454FEA1C4701
:1011900004FB07622CEA074C05FB07F70CFB05F67E
:1011A00004FB0CFC16EB074642EB174216EB0C4611
:1011B00042EB1C421BEB060658EB0202414146EA99
:1011C0009E0601D5BDE80189B619524141EB0101E6
:1011D000A3F10103BDE801894FEA14454FEA114725
:1011E00024EA054621EA074C05FB07F406FB07F74E
:1011F0000CFB06F105FB0CFC11EB074144EB17441B
:101200004FEA124711EB0C4144EB1C4422EA074C15
:1012100005FB07F206FB07F70CFB06F605FB0CFCCB
:1012200016EB074642EB174216EB0C4642EB1C4509
:101230006A1854F1000148BF7047B619524141EB9A
:101240000101A3F10103704795F0000F37D04FEA79
:1012500011424FEA144721EA024624EA074C02FBF6
:1012600007F106FB07F70CFB06F402FB0CFC14EB82
:10127000074441EB17414FEA154714EB0C4441EB8F
:101280001C4125EA074C02FB07F506FB07F70CFBA0
:1012900006F602FB0CFC16EB074645EB174516EB72
:1012A0000C4645EB1C42121951F1000148BF704732
:1012B000B619524141EB0101A3F1010370474FEA16
:1012C00014454FEA114724EA054621EA074C05FB7D
:1012D00007F106FB07F70CFB06F24FF0000605FBD3
:1012E0000CFC12EB074241EB174112EB0C4251EBA5
:1012F0001C4148BF7047921841EB0101A3F1010363
:101300007047000070B5044600688168C943C9078A
:1013100017D1816821F00101816000F087FF054647
:101320000AE000BF00F082FF401B022804D92068B9
:101330008068C043C00706D020688068C043C007EB
:10134000F0D0002070BDA06A40F01000A062E06AFA
:1013500040F00100E062012070BD10B50146406A16
:10136000826A12F0500F05D0006A026BBDE810408F
:1013700008461047816A41F40071816201688968FA
:10138000C1F3424107290CD1017B51B9816A21F493
:1013900080718162816AC90403D4816A41F00101CC
:1013A000816200F03FFB10BD10B5406A816A41F0D8
:1013B00040018162C16A41F00401C16200F034FB66
:1013C00010BD10B5406A00F02EFB10BDF8B5002628
:1013D0000446009600688168C943C9072DD081681A
:1013E00041F001018160164816490068B0FBF1F038
:1013F00000E0401E00900028FBD100F017FF0546DA
:1014000016E000BF00F012FF401B022810D9206830
:101410008068C043C0070BD0A06A40F01000A062F3
:10142000E06A40F00100E06284F824600120F8BD29
:1014300020688068C043C007E4D10020F8BD0000E8
:101440001C0A002040420F0070B5154C208805F0A2
:101450007FFC144E4FF066352A46334605F0C8FC33
:1014600005F0EAF910490860608805F071FC2A4629
:10147000334605F0BDFC05F0DFF90C490860A08893
:1014800005F066FC2A46334605F0B2FC0022084B04
:1014900005F0AEFC05F0D0F9211F086070BD00001A
:1014A000080A002066664A3F780A00207C0A00206D
:1014B0000000264010B5084906F068F904460748C0
:1014C000006806F04FF9214605F0CEFF06F012F94C
:1014D0000349086010BD00000000C842FC0900205C
:1014E000000A00202DE9F041124C2068002817D096
:1014F000114D124F4FF400762968884205D93146C4
:10150000384600F081FE01280CD020682968884206
:1015100006D801223146384600F083FE00202060C4
:10152000BDE8F08131463846BDE8F041002200F0C8
:1015300078BE0000000A0020FC09002000080140DD
:10154000FEE700002DE9FC41164E06F1080404F107
:101550000C02A2F11C0507CA3768A3689F4208D194
:101560007768874205D12F688F4202D16F68974212
:1015700014D0121A0127C91A684603F0B9FB0948AA
:10158000DDE900120838C0E90A12206928606069A4
:101590006860A0683060E068706000E0002738464E
:1015A000BDE8FC81080000202DE9FF5F664D287032
:1015B0006648009003F00BFC654C94F8A8090028DD
:1015C0004CD02878A8460126624F42F20F754FF0A2
:1015D000000A04283ED2DFE800F03D0217445D48CF
:1015E00001F078FC5B48FD6001F0CAFB08B100F037
:1015F0002DF9D4E90212009803F0CFFBD4E90212CE
:10160000009803F0CAFB20E0524801F063FC514807
:10161000FD6001F0B5FB08B100F018F95FF00305BB
:1016200004EBC500D0E90412009803F0B6FB6D1E70
:10163000F6D5D4E90A12009803F0AFFB0421009814
:1016400003F0E0FB009803F08FFB84F8A9694148A0
:1016500001F014FC84F8AAA998F8000004B0BDE8D1
:10166000F09F3C4801F036FCDFF8DC90042109F1E2
:10167000010942F2107B89F801105B4603224946BA
:10168000354802F093F84FF47A7000F0BBFC002567
:101690002D4989F801505B460322491C2E4802F06F
:1016A00085F8C82000F0AEFC6D1CEDB2042DEFD320
:1016B0004FF47A75284600F0A5FC2548D4F8E814C4
:1016C00030308346042910DA0146684603F028FBCF
:1016D00007E0594602A803F023FBDDE90201CDE94A
:1016E00000010098A842F4D313E0D14684F8A9A9D8
:1016F0000025594602A803F013FBDDE90212009809
:1017000003F04BFB6D1C042DF3DBD4F8A409042873
:1017100001D00020A2E744F61F60F8600D4801F0F8
:101720002FFB08B100F092F802A8009903F0CEFB5D
:10173000DDE90212009803F030FB0921009803F064
:1017400061FB84F8AB9980E7120A00203405002081
:1017500048000020D80B0020140D00202DE9F04196
:101760002A4CA1692069226A401AA16A891A084490
:1017700000EBD070401005F0DDFF254D01462846F6
:1017800005F0DAFE20606169E06AE269401A616A88
:10179000891A084400EBD070401005F0CBFF0146D9
:1017A000284605F0C9FE00252E462F46A04660605B
:1017B00008EBC704206905F0BDFF294605F054FE7B
:1017C0000546606905F0B6FF314605F04DFE7F1C09
:1017D000FFB20646042FEBD328466FF001052946D9
:1017E00006F077F905F086FF80B2C8F80800444695
:1017F0003046294606F06DF905F07CFF80B2E060C6
:10180000012084F8A809BDE8F0810000480000200C
:101810000000FA43014800F0E5BA0000B00A0020D9
:1018200030B590F840500124AC40C56B6C60046842
:1018300063604368102B036803D099600068C2603E
:1018400030BD9A600068C16030BD704772B6FEE777
:10185000F8B500250446009590F8240001280BD027
:10186000012084F824002046FFF74CFD2046FFF7B6
:10187000ADFD060002D050E00220F8BDA06A20F4C1
:10188000885040F00200A062022000F0FBFE2549D3
:101890000968B1FBF0F0400000E0401E0090002815
:1018A000FBD12068816841F00801816000F0BEFC36
:1018B000074608E000F0BAFCC01B0A2803D92068DC
:1018C0008068000715D4206880680007F2D420687B
:1018D000816841F00401816000F0A8FC074612E035
:1018E00000F0A4FCC01B0A280DD9206880684007BE
:1018F00009D5A06A20F0020040F01000A06284F830
:1019000024500120F8BD206880684007E8D4A06A10
:1019100020F0020040F00100A06284F8245030461C
:10192000F8BD00001C0A0020F8B50024009490F8CF
:1019300024202546012A12D0012280F824204A685A
:101940001F23072A0DD20668776B521E02EB820214
:1019500093409F430B6893401F43776319E0022035
:10196000F8BD06680D2A0AD2376BD21F02EB82023D
:1019700093409F430B6893401F43376309E0F76A26
:101980000D3A02EB820293409F430B6893401F4342
:10199000F7620A68072306680A2A0AD3F7680A3A30
:1019A00002EB420293409F438B6893401F43F760D2
:1019B00008E0376902EB420293409F438B689340F3
:1019C0001F4337610A68102A01D0112A20D1124B17
:1019D00002689A4217D193681B0219D4936843F4A2
:1019E000000393600968102912D10C490C4A096858
:1019F000B1FBF2F101EB8101490000E0491E0091C9
:101A00000029FBD104E0816A41F0200181620124B8
:101A100080F824502046F8BD002401401C0A002014
:101A200040420F0070477047704700002DE9F041B9
:101A30004FF0000704003D467ED0A06A002628B97A
:101A4000E66284F82460204600F07EF82046FFF726
:101A500059FCA16AC90600D420B1A06A40F0100068
:101A6000A06269E0A16A21F4885141F00201A162FB
:101A70006268E169237B0A4347EA43010A43A1689C
:101A80004FF48077B94209D0012907D05FF00001F7
:101A900094F814C0BCF1010F02D00AE03946F7E710
:101AA000F3B1A36A43F02003A362E36A43F00103A6
:101AB000E3622368D3F804C02CF4694C4CEA010CAF
:101AC000C3F804C021688B68DFF870C003EA0C0318
:101AD00013438B60A168B9420BD0012909D00CE0F7
:101AE000DFF85CC0A3690CEB43330B4343F40061A4
:101AF000DFE7218A0D05A5F580152168CB6A23F45F
:101B000070032B43CB62216889680E4B19409142C8
:101B100008D1E662A16A21F0020141F00101A1624F
:101B2000BDE8F081A06A20F0020040F01000A06241
:101B3000E06A40F00100E0620120F1E7FDF7E1FF1B
:101B400000E0FFFFFE0E1FFF70B586B000250646C1
:101B500000950195029503950068214988423CD182
:101B60002049886940F400708861886900F4007039
:101B70000490886940F004008861886900F00400DE
:101B80000490886940F0080088618869032400F0A7
:101B9000080004900220CDE900046946124800F0D4
:101BA00043FA009469461148019400F03DFA114C43
:101BB0000F48C4E900058020C4E9025040002061BC
:101BC000800060612020C4E90605204600F0B4F9D9
:101BD00008B1FFF73BFE3462666206B070BD0000DC
:101BE000002401400010024000080140000C0140A8
:101BF00008000240B00A00202DE9F047894604465B
:101C00003B4900683B4F0E1D9046884201D0B842C8
:101C100007D1306810F4702F03D001252846BDE8A5
:101C2000F08794F8240001280CD0012084F82400C7
:101C30002046FFF7CBFB05004FF0000004D084F8EE
:101C40002400EBE70220EAE7A16A40F60162914333
:101C500041F48071A1622168B94218D1326812F44E
:101C6000702F14D0A16A41F48011A1623168490536
:101C700005D5A16A21F4005141F48051A162A16A05
:101C8000C9040AD5E16A21F00601E16206E0A26A10
:101C900022F48012A2624968E9E7E06284F8240035
:101CA000216A15488862216A1448C862216A14486A
:101CB000086321686FF0020008602068816841F4C1
:101CC00080718160216843464A464C31206A00F0A9
:101CD00061F920688168C1F342410729816803D016
:101CE00041F48011816099E741F4A001FAE7000016
:101CF00000240140002801405B130008C3130008C2
:101D0000A913000810B590F821100022022905D06F
:101D10000421816380F82020012010BD01680B6838
:101D200023F00E030B6001680B6823F001030B60C6
:101D300090F84030C46B012101FA03F3636080F82E
:101D4000211080F82020104610BD000010B590F83A
:101D500021100024022903D00421816301243DE0E5
:101D600001680A6822F00E020A6001680A6822F01F
:101D700001020A601A4A0168914201D1012121E061
:101D8000174A1432914201D110211BE0144A283223
:101D9000914201D1891515E0114A3C32914201D19D
:101DA00089140FE00E4A5032914202D14FF4803133
:101DB00008E00B4A6432914202D14FF4801101E0F5
:101DC0004FF08071064A083A5160012180F82110D5
:101DD000002180F82010416B01B18847204610BDDA
:101DE000080002402DE9F05FC16B0C6801680B68C8
:101DF000D0F840C0042202FA0CF2494DDFF824A1C9
:101E0000494E4A4FDFF828B1DFF828E122422CD0B2
:101E10005A072AD50A68920603D40A6822F00402F7
:101E20000A600168A94201D1042219E0514501D19B
:101E3000402215E0B14202D14FF4806210E0B94275
:101E400002D14FF480420BE0594502D14FF4802279
:101E500006E0714502D14FF4800201E04FF080624C
:101E60002F4908394A60C16A3BE04FF0020808FA7E
:101E70000CF818EA040F4FF000094FF0010235D0BA
:101E80005FEA837832D50B689B0605D40B6823F094
:101E90000A030B6080F821200168A94201D10222C7
:101EA00019E0514501D1202215E0B14202D14FF491
:101EB000007210E0B94202D14FF400520BE05945D4
:101EC00002D14FF4003206E0714502D14FF4001206
:101ED00001E04FF00072124908394A6080F8209002
:101EE000816A00291AD0BDE8F05F0847082505FA85
:101EF0000CF5254212D01B0710D50B6823F00E03FA
:101F00000B6090F84010C36B02FA01F159608263D4
:101F100080F8212080F82090016BE2E7BDE8F09F77
:101F2000080002401C000240300002404400024011
:101F3000580002406C00024030B528B308C813496D
:101F400014221944B1FBF2F18900C1631049816385
:101F5000022141771A6843F6F0718A43D0E90014F0
:101F60002143D0E902452C432143046921434469BC
:101F700021438469214311431960002141630122F7
:101F800042770177084630BD012030BDF8FFFDBF24
:101F90000000024070B5044690F82000002501289A
:101FA0000CD0012084F8200094F821600020012E3C
:101FB00006D084F820000225284670BD022070BD9E
:101FC000022684F82160A0632068066826F00106D6
:101FD00006602046FFF724FCE06A002820680168BC
:101FE00002D041F00E0106E021F0040101602068FA
:101FF000016841F00A0101602068016841F00101B7
:102000000160D9E770B5044600F010F90546601C80
:1020100002D004480078044400F008F9401BA042B4
:10202000FAD370BD200A00202DE9F84FDFF8B891EF
:102030000024A9F1040B23460F2709F1040AABF190
:10204000040EC9E00125A5402A40AA427DD1674E71
:10205000D1F804C0ACEB0608B44532D014DCBCF1B6
:10206000030F3AD009DCBCF1000F2AD0BCF1010FFC
:102070001CD0BCF1020F31D11DE0BCF1110F17D003
:10208000BCF1120F2AD119E0B8F5881F19D006DC6F
:10209000B8F5803F15D0B8F5801F1FD111E0B8F515
:1020A000001F0ED0B8F5041F18D10AE0CB6815E068
:1020B000CB681B1D12E0CB6808330FE0CB680C33F4
:1020C0000CE08B682BB1012B4FF0080303D0456166
:1020D00004E0042302E0056100E00023FF2A01D8A8
:1020E000064601E000F104064FEA840501D9A5F196
:1020F0002005D6F8008007FA05FC28EA0C0803FA48
:1021000005F548EA0508C6F800804D68ED0062D57F
:10211000374DAE6946F00106AE61AD6924F00306A5
:1021200005F001050095334D06EB050CDCF8085071
:10213000A607360F07FA06F825EA0805DFF8B88083
:10214000404503D14FF0000817E044E0DFF8AC80D1
:10215000404502D14FF001080FE0DFF8A480404570
:1021600002D14FF0020808E0DFF89880404502D124
:102170004FF0030801E04FF0040808FA06F848EAB7
:102180000508CCF808804D68D9F80060ED024D468E
:1021900001D5164300E096432E604D68DAF80060E2
:1021A000AD02554601D5164300E096432E604D68BA
:1021B000DBF80060AD035D4601D5164300E09643B1
:1021C0002E604D68DEF80060ED03754601D51643BC
:1021D00000E096432E60641C0D682A46E5407FF4BB
:1021E00031AFBDE8F88F0000080401400000111075
:1021F000001002400000014000080140000C0140B6
:1022000000100140001401408068084000D0012007
:102210007047C26821EA02030A4043EA02410161B1
:1022200070470AB1016170470904FBE70148806803
:1022300070470000200A002070B5040025D094F8F3
:102240003D00002520B984F83C50204600F04EF9AE
:10225000242084F83D002068016821F0010101601C
:102260002068016841F4004101602068016821F4A0
:102270000041016000F064FB4D4A6168914201D861
:102280004C4900E04C49884201D2012070BD4B49C5
:102290002368B0FBF1F15E6826F03F060E435E60F6
:1022A0006368934206D94FF4967359434FF47A7397
:1022B000B1FBF3F12368491C1E6A26F03F06314347
:1022C00019626168914210D84900401EB0FBF1F2DA
:1022D000521CC2F30B02042A01D2042022E0B0FBFC
:1022E000F1F0401CC0F30B001CE0A268F2B301EB5C
:1022F000C10303EB0116431EB3FBF6F35B1C43F46F
:1023000080431B0549D092B301EBC10202EB0111DE
:10231000401EB0FBF1F0401CC0F30B0040F48040C5
:1023200040F400402168CA694CF6FF739A43104399
:10233000C861D4E9071001432068026822F0C00296
:1023400011430160D4E9030101432068826848F227
:10235000FF339A4311438160D4E9050108432168A2
:10236000CA6822F0FF021043C86001E00EE016E0E8
:102370002068016841F0010101602564202084F893
:102380003D00256384F83E50002070BD01EB4106FE
:10239000431EB3FBF6F35B1CB3E70120C2E701EB7E
:1023A0004101401EB0FBF1F0401CC0F30B00B7E749
:1023B000A086010080841E0000093D0040420F00FD
:1023C0002DE9F84F1F4690468A460446DDF82890CE
:1023D000FFF72CFF054694F83D0020287FD11923F4
:1023E000012240492046009501F0C4FA002876D128
:1023F00094F83C00012872D0012084F83C00206849
:102400000168C90703D1016841F00101016020683A
:10241000016821F400610160212084F83D00102052
:1024200084F83E0000262664C4F824806785608D09
:1024300020852D48E0622B464A465146204601F051
:102440001FFA90B9206841698069009036E02A46F9
:102450004946204601F034FB50B1206C042804D1D9
:102460002068016841F4007101600120BDE8F88F27
:10247000606A216800780861606A401C6062618D52
:10248000491E6185218D491E89B2218522685369C3
:10249000DB435B070BD451B100781061606A401CCC
:1024A0006062608D401E6085208D401E20852A461A
:1024B0004946204601F032FA0028CED1208D00286E
:1024C000C5D154F83D0B016841F400710160202032
:1024D00004F81E09E67766770020C7E7FFE70220C9
:1024E000C4E70000020010000000FFFF10B586B036
:1024F00000210091019102910391006810498842E6
:102500001BD1104CA06940F00800A061A069694689
:1025100000F0080004904FF44060009012200190F9
:10252000032003900848FFF77FFDE06940F4800036
:10253000E061E06900F48000049006B010BD000086
:102540000058004000100240000C01400248816821
:102550000278114481607047200A0020074810B5B6
:10256000016841F010010160032000F079F80320B8
:1025700000F006F800F024F8002010BD0020024012
:1025800070B50D4D04464FF47A712878B1FBF0F028
:102590000A490968B1FBF0F000F0A8FB48B9102C1B
:1025A00007D200222146501E00F03AF800206C604D
:1025B00070BD012070BD0000200A00201C0A002010
:1025C0000E4808B5816941F001018161816901F01E
:1025D00001010091C16941F08051C161C06900F001
:1025E00080500090052000F03BF80548416821F03C
:1025F000E06141F00071416008BD00000010024040
:1026000000000140002809DB00F01F020121914079
:102610004009800000F1E020C0F800117047000080
:10262000F0B40E4B1B680C46C3F30223C3F107053D
:10263000042D00D90425191D072901D2002300E02B
:10264000DB1E012606FA05F1491E214099409E40F5
:10265000761E16403143F0BC02F075BE0CED00E072
:10266000064900F0070208684FF6FF03184040EAE9
:102670000220034A10430860704700000CED00E0A0
:102680000000FA0510B501460020234C012922D094
:10269000022939D010291DD161682268D20119D5CB
:1026A0001E48C1F38342C903805C0AD561681B4A96
:1026B000C1F34041921E515C194AB2FBF1F148430B
:1026C00001E0184948436168490203D440000321EE
:1026D000B0FBF1F010BD226AC2F30121012903D140
:1026E000920701D5C80310BD022905D1626A92077D
:1026F00002D549F6404010BD0329FCD12168890369
:10270000F9D54FF2244010BD00F02AF96168C1F3F9
:102710008131491C4900DBE7001002408C7B000836
:1027200000127A0000093D002DE9F84305460078C3
:10273000354CC00754D0E0690026C00008D4E069D9
:1027400040F08050E061E069012600F08050009088
:102750002E480168C90512D40168804641F4807191
:102760000160FFF763FD074605E000BFFFF75EFD70
:10277000C01B642823D8D8F80000C005F6D5206A0D
:1027800010F4407021D0A98801F4407181421CD01E
:10279000206A1F49012220F440700A6000220A606A
:1027A0002062C00711D0FFF741FD074641F288388B
:1027B00008E000BFFFF73AFDC11B414502D90320E5
:1027C000BDE8F883206A8007F4D5206A696820F4A0
:1027D0004070084320621EB1E06920F08050E06143
:1027E0002878800705D56068A96820F44040084330
:1027F00060602878C00605D56068E96820F480002C
:10280000084360600020DBE70010024000700040D9
:10281000400442422DE9F0470F46050061D0434E87
:10282000306800F00700B84209D2306820F0070095
:1028300038433060306800F00700B84251D1286852
:102840003B4C810712D5400703D5606840F4E06037
:1028500060602878000703D5606840F460506060CD
:102860006068A96820F0F000084360602878C0071D
:1028700028D06868012810D02168022810D0890764
:1028800000292EDA616821F0030101436160FFF73E
:10289000CDFC804641F288390DE021688903EFE7DD
:1028A0008901EDE7FFF7C2FCA0EB0801494502D919
:1028B0000320BDE8F0876068696800F00C00B0EBA9
:1028C000810FEFD1306800F00700B8420BD93068B3
:1028D00020F0070038433060306800F00700B8424D
:1028E00001D00120E5E72878400705D56068E96850
:1028F00020F4E060084360602878000706D560682F
:10290000296920F4605040EAC100606000F038F8A6
:102910006168084AC1F30311515CC8400649086068
:1029200006480068FFF72CFE0020C2E700200240A6
:1029300000100240607B00081C0A0020240A0020CE
:102940000448054900684968044AC1F30221515C02
:10295000C84070471C0A002000100240707B00082D
:102960000448054900684968044AC1F3C221515C22
:10297000C84070471C0A002000100240707B00080D
:102980000E4A51680E4801F00C03042B11D0082B9D
:102990000FD10C48C1F38343C903C05C0AD5516809
:1029A000084AC1F34041921E515C054A5043B0FBB6
:1029B000F1F070470449484370470000001002409E
:1029C00000127A007A7B000800093D002DE9F84FDB
:1029D000040070D02078C04DC00749D06868C0F3AB
:1029E0008100012807D06868C0F38100022809D15E
:1029F0006868C00306D52868800339D56068002858
:102A0000E7D035E06068B0F5803F0BD010B1B0F58D
:102A1000A02F11D0286820F480302860286820F486
:102A2000802002E0286840F480302860606890B11F
:102A3000FFF7FCFB06460AE0286840F48020286087
:102A4000F0E700BFFFF7F2FB801B642873D828680B
:102A50008003F7D50CE0FFF7E9FB064605E000BF71
:102A6000FFF7E4FB801B6428F0D828688003F7D4C4
:102A700020789A4E80074FF001094FF0000839D5B1
:102A8000686810F00C0F07D06868C0F38100022856
:102A900009D16868C00306D42868800714D5206966
:102AA000012808D110E02069B0B1C6F80090FFF706
:102AB000BDFB074605E00AE1FFF7B8FBC01B022893
:102AC000C4D828688007F7D52868616920F0F80025
:102AD00040EAC10028600DE0C6F80080FFF7A6FBC1
:102AE000074604E0FFF7A2FBC01B022823D8286892
:102AF0008007F7D4207800072CD57948A169D9B18F
:102B0000C0F80090FFF792FB074604E0FFF78EFB4A
:102B1000C01B02280FD8686A8007F7D571484FF4A8
:102B2000FA510068B0FBF1F0009000BF0098411E20
:102B30000091FAD20EE080E0C0F80080FFF776FB4B
:102B4000074604E0FFF772FBC01B022875D8686ACD
:102B50008007F7D42078400760D5E8690027C000D7
:102B600008D4E86940F08050E861E869012700F086
:102B7000805000905C480168C90513D40168834601
:102B800041F480710160FFF751FB824606E000BF0F
:102B9000FFF74CFBA0EB0A0064284ED8DBF80000DE
:102BA000C005F5D5E06801280AD008B1052813D082
:102BB000286A20F001002862286A20F0040002E060
:102BC000286A40F001002862E06841F2883B98B131
:102BD000FFF72CFB82460BE0286A40F004002862D5
:102BE000EEE700BFFFF722FBA0EB0A0159455AD8D8
:102BF000286A8007F6D50CE0FFF718FB824605E04F
:102C0000FFF714FBA0EB0A0159454CD8286A80074E
:102C1000F6D41FB1E86920F08050E861E06988B31C
:102C20006968C1F38101022944D00228C6F8608096
:102C300004D0FFF7FBFA044638E034E0FFF7F6FA79
:102C4000074604E0FFF7F2FAC01B02282BD82868D9
:102C50008001F7D4206AB0F5803F05D16868A1688B
:102C600020F4003008436860D4E90801084369682B
:102C700021F4741108436860C6F86090FFF7D6FA33
:102C8000044606E025E000BFFFF7D0FA001B02284B
:102C900009D828688001F7D51BE000BFFFF7C6FA06
:102CA000001B022802D90320BDE8F88F28688001A4
:102CB000F4D40EE00128F7D06868226A00F480316D
:102CC000914204D1616A00F47010884201D0012061
:102CD000EAE70020E8E7000000100240000042425E
:102CE000800442421C0A00200070004010B5401EC3
:102CF000B0F1807F01D3012010BD4FF0E02460616E
:102D00000F21601702F01FFB0020A0610720206147
:102D1000002010BD7047704770B590F83C20012A24
:102D200026D0012480F83C40022280F83D20036830
:102D30005A689D6822F070060A6832435A600D4B4B
:102D400002689A4208D0B2F1804F05D00A4B9A42ED
:102D500002D00A4B9A4204D1496825F080031943F6
:102D6000916080F83D40002180F83C10084670BD1D
:102D7000022070BD002C014000040040000800400B
:102D800010B5040003D094F83D0010B107E0012015
:102D900010BD002084F83C00204600F01FF80220FF
:102DA00084F83D00211D206802F0FAF8012084F823
:102DB000460084F83E0084F83F0084F8400084F820
:102DC000410084F8420084F8430084F8440084F809
:102DD000450084F83D00002010BD000008B5234ADE
:102DE0000168234891420ED1816941F400618161FB
:102DF0008069002200F40060009002211920FFF792
:102E00000FFC19202EE0B1F1804F11D0194A9142E8
:102E100017D1C16941F00201C161C069002200F00F
:102E20000200009002211D20FFF7FAFB1D2019E08F
:102E3000C16941F00101C161C06900F00100009069
:102E400008BD0D4A9142FBD1C16941F00401C16145
:102E5000C069002200F00400009003211E20FFF74B
:102E6000DFFB1E20BDE80840FFF7CCBB002C014073
:102E700000100240000400400008004090F83D109F
:102E8000012901D001207047022180F83D1001681E
:102E9000CA6842F00102CA6000680B49884208D043
:102EA000B0F1804F05D00949884202D008498842D4
:102EB00004D1816801F00701062903D0016841F0BF
:102EC0000101016000207047002C01400004004017
:102ED000000800400168CA6822F00102CA60016867
:102EE0000A6A41F211131A4207D10A6A9B101A4268
:102EF00003D10A6822F001020A60012180F83D1026
:102F00000020704770B5044690F83C000025012869
:102F100017D0012684F83C60022084F83D00206828
:102F2000826822F0770222F47F428260086850288B
:102F300038D00DDC20284FD005DC90B3102811D1FB
:102F40004AE0022070BD302846D040280AD13BE03C
:102F500060282FD070280DD0B0F5805F03D0B0F579
:102F6000005F12D0012584F83D60002084F83C0009
:102F7000284670BDCB68D1E90121206802F04CF8E9
:102F80002068816841F0770109E0CB68D1E901212F
:102F9000206802F041F82068816841F48041816036
:102FA000E1E719E0CA684968206802F047F8502153
:102FB000206806E0CA684968206802F050F860217D
:102FC000206802F033F8CEE7CA684968206802F04A
:102FD00035F840212068F4E7226801461046F0E702
:102FE00070472DE9F04104460068C66805694FF056
:102FF0000007A90713D5B10711D5F91E01610120FA
:103000002077206880698007204602D0FFF7E8FF1C
:1030100004E000F07EF8204600F07CF8277768078F
:1030200016D5700714D521686FF0040008610220DE
:1030300020772068806910F4407F204602D0FFF797
:10304000CFFF04E000F065F8204600F063F8277732
:10305000280715D5300713D521686FF008000861DF
:10306000042020772068C0698007204602D0FFF73F
:10307000B7FF04E000F04DF8204600F04BF827774A
:10308000E80616D5F00614D521686FF01000086127
:10309000082020772068C06910F4407F204602D0C5
:1030A000FFF79EFF04E000F034F8204600F032F80D
:1030B0002777E80708D0F00706D021686FF00100F5
:1030C0000861204600F028F8280608D5300606D505
:1030D00021686FF0800008612046FFF71BFE68063C
:1030E00008D5700606D521686FF0400008612046BB
:1030F00000F0D8F8A8060AD5B00608D521686FF008
:10310000200008612046BDE8F041FFF704BEBDE89D
:10311000F0817047704700002DE9F04107460168D3
:1031200054480025544C92B0814204D1A0880A280A
:103130000CD0401CA080514881426BD1504EDFF82A
:10314000448196F8A909012802D015E0A580F2E78C
:103150004D49684601F0E4FD0098B0F57A7F65DCE2
:10316000002863D0019AC8E90402FEF7EBF986F85B
:10317000A9594648FEF79EF9D8E90623444945482F
:1031800001F02AFBE8B3002086F8A9094248404D27
:10319000404E0078042852D038223A4904A8FDF75E
:1031A000DAF806F110000FC88DE80F0096E80F005E
:1031B00001F08AFB04F02CF9DFF8E0804FF03336A1
:1031C0003246434603F014FE03F036FB2D49024617
:1031D0001831304801F034FC38222A4904A8FDF7A0
:1031E000BAF805F110000FC88DE80F0095E80F0040
:1031F00001F06AFB04F00CF93246434603F0F8FD97
:1032000000E01AE003F018FB1E4902461C31284674
:1032100001F016FC22493868884228D1A068401C79
:10322000A06012B0BDE8F041FEF75CB9012086F85D
:10323000AA090420FEF7B8F99EE70120A4E700F0F0
:103240006BFCF07000F07AFCE87006F110000FC81B
:103250008DE80F0096E80F0001F00AFB05F1100061
:103260000FC88DE80F0095E80F0001F001FB12B0C8
:10327000BDE8F081002C0140F4090020000400406A
:10328000480000201000002034050020CDCCCC3DAB
:10329000580A0020380A0020120A00203333F33F76
:1032A000000800407047704770470000F8B501689B
:1032B00004460868CA684B6910F00F0F4FF000050C
:1032C00059D003F0010602F49077374365D0C10767
:1032D00005D0D10503D5616C41F00101616441075E
:1032E00005D5D90703D0616C41F002016164810703
:1032F00005D5D90703D0616C41F004016164010771
:1033000007D502F02001314303D0616C41F0080180
:103310006164616C00293AD0800604D5900602D51C
:10332000204601F0DDFE20684069616CC0F380102A
:10333000090700D460B3204601F0ABFE2068406965
:10334000400621D52068143050E8001F21F04001CC
:1033500040E80012002AF5D1E06BA8B16D49416345
:10336000E06BFEF7F3FC002811D0E06B416B01B07D
:10337000BDE8F040084783060FD593060DD52046DB
:10338000BDE8F84001F0ACBE2046FFF78DFFF8BD68
:103390002046FFF789FF6564F8BD266B2023012EC8
:1033A0007CD1C6067AD5D60678D5086848680090DC
:1033B00048694FF00206400640D5E16B0868406856
:1033C0000004000CE8D0A28D8242E5D9E08588692E
:1033D00020282DD020680C3050E8001F21F4807187
:1033E00040E80012002AF5D12068143050E8001F90
:1033F00021F0010140E80012002AF5D120681430C4
:1034000050E8001F21F0400140E80012002AF5D1E9
:1034100084F84230256320680C3050E8001F21F00A
:10342000100140E80012002AF5D1E06BFEF76AFCBB
:103430006663A08DE18D401A81B22AE0A08DE18DF6
:10344000401A81B2E08D0028A6D00029A4D02268BD
:103450000C3252E8000F20F4907042E80007002F71
:10346000F5D12068143050E8002F22F0010240E826
:103470000027002FF5D184F84230256320680C30F6
:1034800050E8002F22F0100240E80023002BF5D175
:1034900066632046FFF707FFF8BDFFE705062BD55B
:1034A000150629D594F841002128F5D1A068B0F57A
:1034B000805F01D12069B0B1206A411C216221687E
:1034C00000784860E08C401E0004000CE084E3D1EA
:1034D0002068C16821F08001C1602068C16841F0A6
:1034E0004001C160D8E7206A0088C0F30800486046
:1034F000206A801C2062E5E74006CDD55006CBD57A
:10350000CA68204622F04002CA6084F8413000F0C8
:103510009DF9C1E78350000870B5040004D094F809
:103520004100002510B106E0012070BD84F8405034
:10353000204600F023F8242084F841002068C16868
:1035400021F40051C160204601F02CFE2068016981
:1035500021F4904101612068416921F02A01416113
:103560002068C16841F40051C1606564202084F87E
:10357000410084F842006563002070BD30B585B01D
:1035800000240094019402940394324D036832485D
:1035900002210322AB422ED1836943F4804383612D
:1035A000836903F480430493836943F008038361D0
:1035B00080692A4D00F0080004904020CDE9000108
:1035C000039269462846FEF72FFD8020CDE90004CE
:1035D000694628460294FEF727FD2148416841F0DC
:1035E000E06141F004014160002211462520FFF70F
:1035F00017F8252029E01B4DAB4228D1C36943F4BD
:103600000033C361C36903F400330493836943F057
:10361000040383618069144D00F0040004900420C9
:10362000CDE90001039269462846FEF7FDFC08201B
:10363000CDE90004694628460294FEF7F5FC012214
:1036400011462620FEF7ECFF2620FEF7DBFF05B033
:1036500030BD00000038014000100240000C014065
:1036600000000140004400400008014090F8423052
:10367000202B01D00220704721B11AB1002303632F
:1036800001F0ECBD012070472DE9F04700683D498D
:10369000884275D13C483D4BDFF8F48090F801C07A
:1036A00080F802C0C278427019780125394F002491
:1036B00029B1394E012909D0022920D111E0FF2A70
:1036C0001DD11D703C7088F8004018E00220012ACE
:1036D00002D0022A03D012E0187035700FE0187083
:1036E0004BE02C4981462D480978FE2A02D1BCF1D5
:1036F000FE0F0CD0632902D24254491C3970BDE838
:10370000F04721490122C91C2548FFF7AFBF1C70B3
:10371000445488F80050317811B1012908D02CE0C8
:1037200001884ABA1F498A60408840BAC86024E0CC
:1037300001881D4F408849BABB6840BA4FF0FF323C
:10374000994201DA012300E0134601EB4301FB68D3
:10375000984200DA012200EB42021348303001F0B7
:103760001CFB99F80010491CC9B289F80010042903
:1037700003D187F8AB5989F800403470BFE7FFE701
:10378000BDE8F08700440040F4090020100A002042
:103790000E0A00200F0A0020110A0020680C0020E9
:1037A000140D002010000020480000202DE9F843EF
:1037B000044690F84100984616460D46202802D04F
:1037C0000220BDE8F88385B17EB10020606421202D
:1037D00084F84100FEF72AFDA6848146E684A068AD
:1037E0002027B0F5805F02D003E00120E9E72069DF
:1037F00010B12E4600250EE000260CE08021204668
:1038000001F047FDA8B9C6B116F8010B2168486060
:10381000E08C401EE084E08C4B464FF00002CDF877
:1038200000800028EAD14FF04001204601F031FD30
:1038300040B184F841700320C3E735F8020BC0F3B0
:103840000800E3E784F841700020BAE77047FEE71C
:1038500001684A69D24352050FD46FF480624A610D
:10386000002140F8301F202242738173026942F028
:1038700004020261017301207047002070470000BC
:10388000F8B50446C06A1E460D461746082807D0FC
:10389000012805D010F5803F02D0206B122804D1FA
:1038A0002068016841F480710160134600224FF0E6
:1038B00001112046009600F05DF840B120680068D4
:1038C000C00502D54FF4007020640320F8BD2069C4
:1038D000B0F5804F0ED00620216800EAD51040F0E8
:1038E000F000086133463A460B49204600F08AF85A
:1038F00078B902E005F0FE0000E0E8B22168086156
:10390000054933463A46891F204600F07BF80028D7
:10391000DCD00120F8BD00000800010070B516469B
:103920000D4604461EE02046FFF792FF08B1012035
:1039300070BD681C16D0FEF779FC801BA84200D829
:1039400085B920684069C04340070BD5002044F882
:10395000300F20216173A073216941F020012161A2
:103960002073E4E720684069C0434007DBD40020AF
:1039700070BD00002DE9F047984617460D460446F5
:10398000C1F30746DDF820902AE000BFB8F1FF3F01
:1039900026D0FEF74BFCA0EB0901414502D8B8F157
:1039A000000F1DD12068012E16D0806925EA000085
:1039B0000004000C12D00020B84211D1002044F8BD
:1039C000300F20216173A073216941F02001216132
:1039D00020730120BDE8F0874069E7E70120EBE7AD
:1039E0002068012E0AD0806925EA00000004000C3E
:1039F00006D00020B842C9D00020EBE74069F3E7C9
:103A00000120F7E72DE9F047984616460D46044693
:103A10004FF000094FF0200AC1F3074723E0206868
:103A20004069C043400515D42068016841F4007125
:103A3000016021686FF480604861C4F8309084F8B8
:103A40003DA084F83E90216C41F00401216484F88B
:103A50003C9021E0701C06D0FEF7E8FBA0EB0800CC
:103A6000B04203D816B1012F1FD021E02068012FEA
:103A700015D0806925EA00000004000C18D000BFB2
:103A800044F8309F84F80DA084F80E90216941F02D
:103A90002001216184F80C900120BDE8F087406985
:103AA00025EA00000004000CEAD12068406901E02A
:103AB0002068806925EA00000004000CAFD1ECE723
:103AC00070B516460D4604461EE02046FFF7C0FEC0
:103AD00008B1012070BD681C16D0FEF7A7FB801B43
:103AE000A84200D885B920684069C04300060BD5BC
:103AF000002044F8300F20216173A073216941F048
:103B0000200121612073E4E720684069C04300067A
:103B1000DBD4002070BD000006480068B0F17C5F77
:103B200001DA022070470449884201DD0420704711
:103B300000207047780A0020000040400648406896
:103B4000B0F17C5F01DA032070470449884201DD4F
:103B50000120704700207047780A00200000404094
:103B600010B5012808D0022809D003280AD004285B
:103B700001D100F009F910BD00F062F810BD00F0AD
:103B8000D7F810BD00F0E4F810BD000070B52A4D64
:103B90004FF48076002431462846FEF735FB60B9A5
:103BA0001420FEF72FFA31462846FEF72DFB002899
:103BB000F9D01420FEF726FA01244FF4007631469E
:103BC0002846FEF721FB60B91420FEF71BFA3146A8
:103BD0002846FEF719FB0028F9D01420FEF712FA48
:103BE0000224164D4FF4806631462846FEF70CFB42
:103BF00060B91420FEF706FA31462846FEF704FBAA
:103C00000028F9D01420FEF7FDF903244FF40066D4
:103C100031462846FEF7F8FA60B91420FEF7F2F9AB
:103C200031462846FEF7F0FA0028F9D01420FEF7B6
:103C3000E9F90424204670BD000C01400008014051
:103C400010B53548354A037892F8A81940780A2B00
:103C500060D2DFE803F05F05070B3B5F465F545817
:103C6000012901D0082051E004204FE0012810D0A4
:103C7000022825D003284DD004284BD12648401EC9
:103C800003220178B1FBF2F302FB1311017010461D
:103C90003CE02348234C417809B9617871B1002197
:103CA00041706170427881898068FEF7BAFA627863
:103CB000A189A068BDE81040FEF7B3BA0121EFE783
:103CC000BDE8104008211848FEF7A3BA012805D026
:103CD000022803D0032801D004281BD1FDF764FC7F
:103CE00011E002EBC000114AD2E90212C0E902124F
:103CF000FDF734FDBDE81040002000F0CFBA0328E6
:103D000003D0042806D1012000E00620BDE81040C1
:103D100000F0E4BA10BD0000170A0020480000209F
:103D2000380A0020580A0020000C01401000002032
:103D300006480078012808D0022806D0072804D0B9
:103D4000092802D0002000F0A9BA7047170A002005
:103D50000C4800780A2813D2DFE800F012050709A2
:103D60000B0D0F120D09022008E0032006E00120D0
:103D700004E0052002E0062000E0042000F0AEBAD6
:103D800070470000170A00200B4800780A2812D25A
:103D9000DFE800F011050C0E0C0C0C0C0C0C0748A5
:103DA00090F8A809002806D1082002E0012000E0D0
:103DB000022000F093BA7047170A00204800002044
:103DC0002DE9F0478146DDE9088A0C46154618467C
:103DD00003F0B0FC514603F0D9FC074651464FF0C2
:103DE0007E5003F09FFD0646204603F0A3FC3146BB
:103DF00003F0CCFC394603F037FB03F05FFC0746C9
:103E0000404603F097FC514603F0C0FC04462846A8
:103E100003F090FC314603F0B9FC214603F024FB8B
:103E200003F04CFCC9E90070BDE8F0873EB5002105
:103E30001C48009101911A4A029102609215826019
:103E400001240473017503254FF460220561C261EA
:103E50004160FDF7EBFD08B1FDF7F8FC052000948B
:103E6000CDE9014069460F48FDF75EFD08B1FDF759
:103E7000EDFC082000900220019069460948FDF7FA
:103E800053FD08B1FDF7E2FC0920CDE900056946C4
:103E90000448FDF749FD002801D0FDF7D7FC3EBDE1
:103EA00000240140800A0020094808B5416941F01A
:103EB000010141614069002200F0010000901146BB
:103EC0000B20FEF7ADFBBDE808400B20FEF79ABBC8
:103ED000001002402DE9F04786B000244C480094C1
:103EE000019402940394816941F020018161816908
:103EF00001F020010491816941F00401816181692F
:103F000001F004010491816941F008018161806937
:103F1000DFF8009100F008004FF490760490002242
:103F200031464846FEF77DF901224FF4307148468C
:103F3000FEF777F9DFF8E0A000224FF218015046B3
:103F4000FEF76FF902270325CDE90075694648465B
:103F5000FEF76AF84FF01008CDF80080CDE9014770
:103F600069464846FEF760F80096012669464846CD
:103F70000196CDE90245FEF757F8C020CDE90006CD
:103F8000CDE9026569464846FEF74EF80095694658
:103F900050460195FEF748F84FF2080003958DE86A
:103FA000C10069465046FEF73FF87002009001AA32
:103FB000112082E8310069464846FEF735F8A8022C
:103FC0008DE8510069464846FEF72EF83003CDE9EA
:103FD0000004694648460294FEF726F8CDE90086BB
:103FE00069465046CDE90245FEF71EF820208DE8CF
:103FF000910069465046FEF717F828028DE85100F7
:1040000069465046FEF710F806B0BDE8F08700009C
:104010000010024000080140000C01400D4810B59E
:104020000B4901600C49416000214FF480428160DE
:10403000C0E9031241618161C1610162FEF7FCF8D0
:10404000002803D0BDE81040FDF700BC10BD000003
:1040500000580040F40A0020A086010010B586B088
:104060000024184800940194029403940494144981
:10407000059401604721C0E9011442F20F71C0E9C3
:1040800003148021C0E90541FEF77AFE08B1FDF76F
:10409000DDFB4FF48050009069460A48FEF732FF7E
:1040A00008B1FDF7D3FB049404A906480594FEF774
:1040B00033FE002801D0FDF7C9FB06B010BD00009B
:1040C000002C0140480B002010B586B00024174892
:1040D000009401940294039404944FF08041059459
:1040E00001604721C0E9011440F2E731C0E903143F
:1040F00080218161FEF744FE08B1FDF7A7FB4FF474
:104100008050009069460948FEF7FCFE08B1FDF7B3
:104110009DFB049404A905480594FEF7FDFD0028C5
:1041200001D0FDF793FB06B010BD0000900B0020FE
:1041300030B587B000251C4C00950195029503957C
:1041400004951848059520604720C4E9010540F210
:10415000E730C4E903058020A0612046FEF710FE89
:1041600008B1FDF773FB4FF48050009069460E488C
:10417000FEF7C8FE08B1FDF769FB049504A90A48DB
:104180000595FEF7C9FD08B1FDF760FB42F20F701F
:10419000E0600548FEF7F4FD002801D0FDF756FB6E
:1041A00007B030BD00040040D80B002030B587B008
:1041B00000251C4C0095019502950395049518481F
:1041C000059520604720C4E901054FF6FF70C4E95A
:1041D00003058020A0612046FEF7D2FD08B1FDF75F
:1041E00035FB4FF48050009069460E48FEF78AFE7A
:1041F00008B1FDF72BFB049504A90A480595FEF7C5
:104200008BFD08B1FDF722FB42F20F70E06005481C
:10421000FEF7B6FD002801D0FDF718FB07B030BD52
:1042200000080040200C00200C4810B50A4901602D
:104230004FF416514160002181600C22C160C0E939
:1042400004128161C161FFF767F9002803D0BDE85E
:104250001040FDF7FBBA10BD00380140CC0C002027
:104260000C4810B50A4901604FF416514160002115
:1042700081600C22C160C0E904128161C161FFF755
:104280004BF9002803D0BDE81040FDF7DFBA10BDA0
:1042900000440040140D0020FEE7000070B50C4CF7
:1042A000054620226078102100F07AFC607804280E
:1042B0000BD0401CC0B2607005B1284660703C2233
:1042C000102100F06DFC607870BD0120F2E7000065
:1042D000170A0020012000F001B8000070B5044664
:1042E00000F0D5FB464D00260A2C2C7007D2DFE8E3
:1042F00004F00605071C3E4F557F667F6E7070BD4B
:10430000012140A2084600F0B8FC42A2012102208F
:1043100000F0B3FC43A20121032000F0AEFC45A253
:104320000121042000F0A9FCE8E7012145A208468C
:1043300000F0A3FC45A20121022000F09EFC45A252
:104340000121032000F099FC2D48401E007820B187
:10435000012804D0022808D105E040A200E044A2D0
:104360000121042017E047A2FAE701203CE00121E7
:1043700049A2084600F081FC49A20121022000F078
:104380007CFC49A20121032000F077FC47A2E7E76B
:10439000012149A2084600F070FCE6E7012149A28C
:1043A000084600F06AFC4BA20121022000F065FCE7
:1043B0004CA20121032000F060FC4EA2D0E70121B5
:1043C00050A2084600F059FC012152A2084600F014
:1043D00054FC55A20121032000F04FFC56A20121FC
:1043E000042000F04AFC0320BDE87040FFF756BFF0
:1043F000BDE87040012154A2084600F03EBC000018
:10440000170A00205365743A202020202C202020F9
:10441000200000004E6F773A202020202C20202002
:10442000200000004A6F793A202020202C202020F4
:10443000200000005352343A202020202020202049
:104440006D0000004D6F746F723A00004C6173652F
:10445000723A000042656570203A00002D2D2D59FA
:1044600069626169205465616D2D2D2D0000000089
:104470002D2D4C424A2D2D4352592D2D53592D2D62
:10448000000000002D2D534355542D2D3230323570
:1044900030342D2D000000004F726967696E0000F6
:1044A0005371756172650000413400004A6F797381
:1044B0007469636B000000004F746865724D6F642F
:1044C000650000005255313A202020202C20202069
:1044D000200000004C55323A202020202C202020A3
:1044E000200000004C44333A202020202C202020A3
:1044F000200000005244343A202020202C2020208C
:1045000020000000576974686F757420496E6974E3
:1045100000000000496E6974206F72207265747526
:10452000726E203F00000000676F746F2020202013
:10453000496E69740000000072657475726E202007
:104540004D61696E00000000756E736574000000B7
:104550002DE9F0418548864C864E0078864F874D80
:10456000072879D2DFE800F078043C7FA778CD00F7
:10457000012395F8A9291946184600F05DFB012191
:104580000220A26900F040FB09210220E26900F04C
:104590003BFB042305210320226900F04DFB04238B
:1045A0000A210320626900F047FBF07804280FD04D
:1045B00002280FD072A20321042000F05EFBF878DD
:1045C000012809D0032809D06DA20A21042068E03F
:1045D0006DA2F0E76EA2EEE76FA2F6E770A2F4E735
:1045E000042305210120226900F026FB04230A216F
:1045F0000120626900F020FB042305210220A2684B
:1046000000F01AFB04230A210220E26800F014FBE8
:10461000FFF782FA04281DD0FFF77EFA02281CD08B
:1046200057A20521032000F028FBFFF787FA012895
:1046300015D0FFF783FA032813D051A20A210320D3
:1046400000F01BFBBDE8F04105214FF07E52042035
:1046500000F0DABA4CA2E4E786E04DA2E1E74EA210
:10466000ECE74FA2EAE77078F8B17878E8B14EA2AB
:104670000721012000F001FB08214D48FDF7C4FD92
:10468000012814D04BA20721022000F0F6FA4FF4C3
:1046900000714948FDF7B8FD01280AD045A207215D
:1046A0000320BDE8F04100F0E8BA44A2E0E745A2EB
:1046B000E9E744A2F3E7444C2078012819D031A25D
:1046C0000A21012000F0D9FA2078022813D02DA267
:1046D0000A21022000F0D1FA207803280DD029A267
:1046E0000A21032000F0C9FA2078042807D025A267
:1046F0006BE736A2E4E735A2EAE734A2F0E733A29B
:1047000063E700244FF6FF7805EBC406326932B147
:10471000424504D0601C0423C0B2052109E0671C97
:10472000F8B22BA2062100F0A8FAF8B20123621C0D
:10473000072100F081FA726932B1424504D0601C51
:104740000423C0B20A2109E0661CF0B221A20B21A9
:1047500000F093FAF0B20123621C0C2100F06CFA15
:10476000641CE4B2042CCFD3BDE8F081170A00200A
:1047700010000020380A0020580A002048000020BD
:10478000204D6964000000004C6566740000000064
:10479000526967680000000020557020000000008A
:1047A000446F776E00000000456E61626C6500002A
:1047B000000C01404F464600000801404469736107
:1047C000626C65004F6E2000120A00202A00000073
:1047D00078000000790000002DE9F0410E46074600
:1047E00022F000414FF0824014461D46814208DC11
:1047F00025F00041814204DC0020F870F070BDE833
:10480000F081002280210D48FDF70BFD0C480D4979
:10481000844201DD022204E08C4201D9042200E03E
:104820000022FA70854201DD032004E08D4201D9A7
:10483000012000E00020F0700120E0E700080140C6
:104840000000A0400000A0C010B50848012200F1FF
:1048500020044270627081898068FDF7E2FC627812
:10486000A189A068BDE81040FDF7DBBC380A002034
:1048700070B504AE014696E83900C1F307227AB15B
:10488000C1F30742012A0BD00A0E09D099B2012ABE
:1048900008D0022A06D0032A06D0042A04D006E053
:1048A000002070BD002200E00122FDF7BAFCADB28D
:1048B000204600222946FDF7B4FC20460122294665
:1048C000FDF7AFFC012070BD2DE9FE4F8146564833
:1048D000DDE912580E46007802F03AFA04460F4617
:1048E000F0B202F035FA514A514B02F081FA00223F
:1048F000504B02F08FF822463B4602F08BF801F055
:104900009BFF04464C488168C068691AA8EB000206
:10491000684600F0EDF9009802F07AFD4FF080450E
:1049200000222B4601F02EFA444E02460B46002090
:10493000314601F0B3FF01F011FF01F07DFF834626
:10494000019802F065FD00222B4601F01BFA024699
:104950000B460020314601F0A1FF01F0FFFE01F0FF
:104960006BFF074600983946054602F0E5FD02F068
:104970004FFD01F07BF801F05FFF0290594601986E
:1049800002F0DAFD02F044FD01F070F801F054FF8E
:1049900082464FEA1960042801D184F00044284679
:1049A00002F036FD06468846384602F031FD0746DD
:1049B0000D462146029802F057FD02F029FD01F054
:1049C000F3FE3A462B4602F013FA3246434602F013
:1049D00035FC21F0004101F02FFF0290019802F018
:1049E00017FD80460E46584602F012FD07460D465A
:1049F0002146504602F038FD02F00AFD01F0D4FED7
:104A00003A462B4602F0F4F94246334602F016FCD1
:104A100021F0004101F010FF09F0FF01012900D150
:104A20000298BDE8FE8F00002C0A00204417415474
:104A3000FB210940000059404800002080842E419D
:104A40007FB50546103016460C460FC88DE80F009E
:104A500095E80F00FFF70CFF002809D0E87801283F
:104A60000DD0022806D0032804D0042807D0002047
:104A700004B070BD3146206802F054FF03E03146B7
:104A8000206802F0F1FC20600120F1E7FEE770B53C
:104A900000240021204600F071F80025002000F0DD
:104AA00011F96D1CEDB2802DF8D3641CE4B2082C12
:104AB000EFD370BD10B54FF47A70FDF7A3FAAE20B6
:104AC00000F0EEF8202000F0EBF8102000F0E8F8FD
:104AD000B02000F0E5F8C82000F0E2F8002000F077
:104AE000DFF8102000F0DCF8402000F0D9F8812039
:104AF00000F0D6F8FF2000F0D3F8A12000F0D0F8A5
:104B0000A62000F0CDF8A82000F0CAF83F2000F061
:104B1000C7F8A42000F0C4F8D32000F0C1F80020AA
:104B200000F0BEF8D52000F0BBF8F02000F0B8F897
:104B3000D92000F0B5F8222000F0B2F8DA2000F019
:104B4000AFF8122000F0ACF8DB2000F0A9F820202C
:104B500000F0A6F88D2000F0A3F8142000F0A0F8D3
:104B6000AF2000F09DF8BDE81040FFF790BF02466F
:104B7000012000E05043491EFCD2704710B50C469E
:104B800040F0B00000F08CF8102040EA141000F063
:104B900087F804F00F00BDE8104000F081B8000075
:104BA0002DE9F0410746CE004000083E801E154624
:104BB0004FF0FF38F1B2C0B2FFF7E0FF1148002418
:104BC00000EB05152819A0F5805090F8000E00F0B4
:104BD00079F8641CE4B2082CF4D308EB4700F1B276
:104BE000C0B2FFF7CBFF08242819A0F5805090F839
:104BF000000E00F067F8641CE4B2102CF4D3BDE89A
:104C0000F08100009C7B000830B5054685B00C465D
:104C1000104602F0FDFB02460B4605A16846FBF775
:104C2000FFFA6A462146284600F027F805B030BD55
:104C3000252E3266000000002DE9F04700241D46B5
:104C40001646884681460A2713E0291B0A20491E7A
:104C5000FFF78DFFB6FBF0F0B0FBF7F107FB110299
:104C600008EB0400C1B248463032FFF799FF641CDC
:104C7000E4B2AC42E9D3BDE8F0872DE9F041154636
:104C80000E460746002406E03019C1B23846FFF749
:104C900087FF641CE4B22A5D002AF5D1BDE8F081EB
:104CA0001CB5002101918DF8050042F210700090B2
:104CB000022301AA78210248FDF782FB1CBD0000F7
:104CC000F40A00201CB507A10223096801918DF8A0
:104CD000050042F21070009001AA78210248FDF709
:104CE0006FFB1CBD40000000F40A0020704700006C
:104CF0002DE9F04105461446084602F01BFD074E1B
:104D0000316802F043FD0746204602F013FD71684A
:104D100002F03CFDC5E90070BDE8F08148000020CC
:104D200070B502460F48D0E90034084600F05BF841
:104D300018B100BFC2E9003470BDD1F8B0049625A7
:104D400001EBC004401C90FBF5F6D4E9003405FBF0
:104D50001600C1F8B004D1F8B804401EC1F8B80478
:104D6000E8E70000507B00083CB50546B0F8B80401
:104D700084B20FE029466846FFF7D2FFDDE9001252
:104D8000284600F00AF8DDE90012284600F005F890
:104D9000641EA4B2002CEDD13CBD30B5034600F03A
:104DA00029F8002812D1D3F8B4049624401C90FBB3
:104DB000F4F504FB1500C3F8B40403EBC000C0E92C
:104DC0000012D3F8B804401CC3F8B80430BD4FF645
:104DD000FF7101600022C0F8B024416000F2B440CD
:104DE000511E06C07047D0F8B80408B100207047C3
:104DF00001207047D0F8B804962801D000207047F1
:104E0000012070472DE9F34FADF2CC4D0E46DDF891
:104E1000CC04D0F8B844022C54DB002E52D000272A
:104E200002AD0BE06846DDF8CC14FFF779FF05EB27
:104E3000C700DDE90012C0E900127F1CA742F1DBC8
:104E40000027AA46A4F1010832E000BF0AEBC70020
:104E50000DF59763D0E9001206C3D0E90210814630
:104E6000CDF8C014DDF8B814DDF8CC04FFF795FFD9
:104E700001251AE0701C02F075FC8346284602F0FA
:104E800059FC594602F058FBCDE900900DF59760AA
:104E900090E80E000C30FEF793FF0DF2C441DDF8F0
:104EA000CC0406C9FFF779FF6D1CB542E2DD7F1C1B
:104EB0004745CBDB0AEBC40050E90212DDF8CC0415
:104EC000FFF76BFF0DF2D44DBDE8F08F02460A48A4
:104ED00010B5D0E902340846FFF785FF10B1C2E9EA
:104EE000003410BDD1F8B00401EBC000D0E90010CF
:104EF000C2E9001010BD0000507B00087047FDF7AC
:104F000025BB30B593B028216846FBF756FA14212B
:104F10000AA8FBF752FA002501200F95109511956C
:104F2000010412958DE8230004904FF4E010CDE9C0
:104F30000810022407946846FDF748FD08B172B6D0
:104F4000FEE70AA90F2081E831004FF48060CDE927
:104F50000D0502210AA8FDF75DFC08B172B6FEE757
:104F60004FF4404011900F940FA8FDF7DDFB00288F
:104F700001D072B6FEE713B030BD70470148FEF7AE
:104F800030B80000480B00200148FEF72AB80000A6
:104F9000D80B00200148FEF724B80000200C0020A8
:104FA000F0B50268194B1A4C1A4D4FF080479842E1
:104FB00005D0B84203D0A04201D0A84203D122F0CC
:104FC00070064A683243984205D0B84203D0A042E6
:104FD00001D0A84203D122F44074CA6822434C692C
:104FE00022F08002224302608A68C2620A688262FA
:104FF000984201D109690163012141610169C90731
:1050000003D0016921F001010161F0BD002C0140D4
:10501000000400400008004010B5846842EA032202
:1050200024F47F440A432243826010BD826822F048
:1050300070020A4342F007018160704710B5036AAD
:10504000046A24F001040462846924F0F00444EA50
:10505000021423F00A020A438461026210BD10B5F3
:10506000036A046A24F010040462846923F0A00334
:1050700024F4704444EA023243EA0111826101627D
:1050800010BD10B5406A0021C185C184FEF70CF93E
:1050900010BD01680C3151E8002F22F4907241E8F4
:1050A0000023002BF5D10168143151E8002F22F0C4
:1050B000010241E80023002BF5D1016B012909D140
:1050C00001680C3151E8002F22F0100241E8002362
:1050D000002BF5D1202180F8421000210163704798
:1050E00008B590F84210222901D0022008BD82683C
:1050F0004FF480539A4201D1016921B1816A9A42E9
:105100001BD04AB10AE00268816A5268C2F3080201
:105110000A80816A891C08E0026972B102685268DB
:1051200002F07F020A70816A491C8162C18D491EAA
:105130000904090CC18503D01BE002685268F1E73D
:105140000168CA6822F02002CA600168CA6822F4B5
:105150008072CA6001684A6922F001024A61202116
:1051600080F8421000214163026B012A03D0FEF750
:105170008BFA002008BD016301680C3151E8002F53
:1051800022F0100241E80023002BF5D101680A68E3
:10519000D20602D50A6849680091818DFEF783F82E
:1051A000E7E7000070B5044600680169E26821F491
:1051B0004051114301612169A068084361690843B6
:1051C0002168CA6841F20C639A430243CA602068AE
:1051D0004169A26921F44071114341611E4920686F
:1051E000884202D1FDF7BCFB01E0FDF7A9FB00EB13
:1051F000C00101EB0012606864218000B2FBF0F393
:10520000B3FBF1F36FF018067343B2FBF0F5B2FB9A
:10521000F0F605EB8305322303EB0515B5FBF1F53D
:10522000B6FBF1F605F0F00505EB0615B2FBF0F65E
:10523000B2FBF0F0B0FBF1F06FF01802504306EB58
:10524000800003EB0010B0FBF1F0216800F00F00CC
:105250002844886070BD000000380140816282856A
:10526000C28500214164222180F84210016921B1E8
:105270000168CA6842F48072CA6001684A6942F0F3
:1052800001024A610068C16841F02001C16000204C
:1052900070472DE9F843984617460D460446089E88
:1052A00024E0701C22D0FCF7C1FFA0EB0800B04244
:1052B0001AD8CEB12068C168490717D5802D15D0FE
:1052C000402D13D00168C94309070FD40168002598
:1052D000406800902046FFF7DCFE0820606484F8F8
:1052E00040500120BDE8F8830320FBE720680068F8
:1052F00035EA000004D00020B842D2D00020F1E707
:105300000120F9E70148FDF7D1BF0000CC0C0020D7
:105310000148FDF7CBBF0000140D0020FEE7490057
:1053200050EAC12018BF04204A0D18BF40F0010008
:1053300040F2FF72B2EB515F08BF40F0020001285B
:1053400008BF052070470907090E002804DB00F19B
:10535000E02080F80014704700F00F0000F1E0201A
:1053600080F8141D704700002DE9F74F144694B0E3
:105370000021C4E902111599079121F00045C9499E
:105380008D4206DC1599C4E9000117B00020BDE884
:10539000F08FC549DFF814A3A9423CDD0799C44E3C
:1053A0000029C44FC44A1599534619DD01F046FF40
:1053B000554506D0C14AC24B01F040FFC4E9000187
:1053C0000AE04FF0D352BE4B01F038FF32463B4665
:1053D00001F034FFC4E9000117B00120BDE8F08FEF
:1053E00001F05CFA554506D0B44AB54B01F056FAC7
:1053F000C4E900010AE04FF0D352B14B01F04EFA7C
:1054000032463B4601F04AFAC4E9000117B04FF0BA
:10541000FF30BDE8F08FAB49A942159978DB21F048
:10542000004183468846A84AA84B01F0E1FC0022CF
:10543000A74B01F033FA01F045FC099001F071FC33
:1054400006460F469C4A534601F0D2FC43465A4654
:1054500001F002FE80468A46984A994B304639460A
:1054600001F0C6FC2A0D01250B924246534601F07D
:10547000F3FD032DC4E9000139D00B98C1F30A51A3
:10548000401A05EB45111139814230DA9148C34683
:10549000784400EB0510CDF80CA00C90D0E9002367
:1054A0003046394601F0A4FC02460B4604910690B2
:1054B0005846039901F0C2FE80468A4602460B46D2
:1054C0005846039901F0BAFE049B069A01F0B6FE15
:1054D00083460C9803913946D0E90223304601F007
:1054E00087FC5A46039B01F0A9FE6D1CBDE7079897
:1054F0000028A2BF099817B0BDE8F08F616881F05D
:1055000000416160099817B04042BDE8F08FFFE7A5
:1055100084461598C1F31301C0F30A50A0F2F53088
:105520004FEA601800F01F06C6F12000139000201B
:105530000690079041F4801E05206D4676B1664ABC
:1055400008EB00017A4452F8213002EB8101B340AC
:105550004A68139922FA01F1194305E05F4908EB03
:105560000002794451F82210A1FB0E27A1FB0C1375
:105570001A449A4234BF0123002303EB070A05EBC8
:105580008003D3E901B70F448F4234BF01210021CA
:1055900093448B4411B1934502D903E0934501D262
:1055A000012100E00021C3E901B7514445F8201072
:1055B000011EA0F10100C1DC0298059F00F100501E
:1055C000800F12900298DDE90356800001F0A9FBDC
:1055D000834628460D9101F0BBFB6FF01D0202F0DF
:1055E0004AFACDE90E01304601F0B2FB6FF03D0200
:1055F00002F041FA80468A46384601F0A9FB6FF076
:105600005D0202F038FA074642465346119101F016
:1056100045F9DDE90E2301F041F95A460D9B01F0F1
:105620003DF900250E465A4628460D9B01F006FE20
:10563000DDE90E2301F002FE4246534601F0FEFD75
:105640003A46119B01F008FDDFF898A0244A534622
:1056500001F0CEFB07468846234A244B31462846B4
:1056600001F0C6FB3A46434601F018F90746884662
:105670004FF0A84253463146284601F0B9FB3A465E
:10568000434601F00BF9159A12F0004F04D0129A1C
:1056900081F0004152421292C4E90001129817B001
:1056A000BDE8F08FFB21E93F7CD90240FB21F93FA7
:1056B0007370032E8A19A33B000040543163621AB1
:1056C00061B4D03DFB21394183C8C96D305FE43FEF
:1056D0000000E03F242E0000A02D0000822D0000DD
:1056E000182D4454FB21F93D3326A611460B113CDD
:1056F0002DE9F0414F1E00EBC7010446D1E900013E
:1057000015461E4637F006020DD02A46334601F0F4
:105710006FFB7F1E04EBC703D3E9002301F0BEF843
:1057200037F00602F1D1022F25D0042F13D0062F17
:1057300018BFBDE8F0812A46334601F059FBD4E991
:105740000A2301F0ABF82A46334601F051FBD4E9B5
:10575000082301F0A3F82A46334601F049FBD4E9B7
:10576000062301F09BF82A46334601F041FBD4E9B9
:10577000042301F093F82A46334601F039FBD4E9BB
:10578000022301F08BF82A46334601F031FBD4E9BD
:105790000023BDE8F04101F081B800002DE9F04D93
:1057A00004468CB0904821F00047164698460D46B6
:1057B0000991874206DA2046294601F083FA00283B
:1057C00000F0AE808948B8421CDC09980028BCBFB4
:1057D00085F0004588F00048854A864B20462946DA
:1057E00001F03AFC04460D4632464346824883495E
:1057F00001F024FD22462B4601F050F80026044615
:105800000D46B04622462B461046194601F0F0FAE6
:105810008B46824602460B4601F0EAFA02460890A1
:1058200077480B46009106217844FFF761FFCDE9E8
:105830000310744806217844009B089AFFF758FF2C
:1058400052465B4601F0D4FACDE9051052465B465C
:105850002046294601F0CCFA07910090DDE90310BB
:10586000DDE9053201F01AF8079B009A01F0C0FA51
:105870003246434601F012F852465B4601F0B8FA50
:105880003246434601F00AF880460E465E4A5F4BB8
:105890000799009801F0ACFA4246334600F0FEFF4B
:1058A00082468B4622462B4600F0F8FF80464F4842
:1058B0000E46B84214985BDC01F033FA07464246C4
:1058C0003346059100F0EAFFCDE901104246334628
:1058D0001046194601F08CFADDE9013201F09AF820
:1058E00052465B4601F0AAFC22462B4601F0B4FB6F
:1058F000012202F0C0F83A46059B01F0ADFB0446D8
:105900000D460998022101EAA070C0F1010001F0E2
:1059100008FA0CB022462B46BDE8F04D01F068BAFB
:105920001498401C384320430BD01498012812D0FF
:105930000CB022462B46BDE8F04D0020344901F062
:1059400069B80CB025F000432246BDE8F04D0020B8
:10595000304901F05FB820462946FFF7E0FC0428F3
:1059600008BF00F073F820460CB02946BDE8F08D62
:10597000012802BF40460CB0BDE8F08D00270B4661
:105980003A462046294601F067FB52465B4601F045
:1059900063FB04460D464246334600201C4901F095
:1059A00039F883463A4688463346104601F020FAD5
:1059B0000022184B00F072FF06468A4622462B460C
:1059C0003846414601F014FA3246534600F066FF6D
:1059D0005A46434601F00CFA0CB03A464346BDE83D
:1059E000F04D00F05BBF00000000303E2894E53F22
:1059F000182D4454FB21E93F075C143326A6813C53
:105A0000542B0000762B0000635555555555D53F56
:105A10000000F0BF0000F03F00221346104601498D
:105A200000F0F8BF0000F03F012202F024B800F0BF
:105A300035BF002213461046114600F0EBBF40F27E
:105A4000013200204FF0E04102F015B8024A002078
:105A5000110702F010B8000001FDFFFF30380A28DE
:105A600001D2012070470020704700002DE9F84F57
:105A700004460D4621F0004000917349814211DC3B
:105A80007249884201DC06D12CB120462946BDE886
:105A9000F84FFFF7C9BF6E48002DCCBF6D496E4966
:105AA000BDE8F88F6D49814211DD6D498142D8BF53
:105AB0004FF0FF366DDD20462946FFF730FC042805
:105AC00008BFFFF7C3FF20462946BDE8F88F6549A8
:105AD000654F25F00045814233DD6449814219DD7F
